{
  "abi": [
    {
      "type": "constructor",
      "inputs": [
        {
          "name": "_bFI",
          "type": "address",
          "internalType": "address"
        },
        {
          "name": "_clt",
          "type": "address",
          "internalType": "address"
        }
      ],
      "stateMutability": "nonpayable"
    },
    {
      "type": "function",
      "name": "DECIMALS",
      "inputs": [],
      "outputs": [
        {
          "name": "",
          "type": "uint256",
          "internalType": "uint256"
        }
      ],
      "stateMutability": "view"
    },
    {
      "type": "function",
      "name": "addCollateral",
      "inputs": [
        {
          "name": "amount",
          "type": "uint256",
          "internalType": "uint256"
        }
      ],
      "outputs": [],
      "stateMutability": "nonpayable"
    },
    {
      "type": "function",
      "name": "bFI",
      "inputs": [],
      "outputs": [
        {
          "name": "",
          "type": "address",
          "internalType": "contract IERC20"
        }
      ],
      "stateMutability": "view"
    },
    {
      "type": "function",
      "name": "borrow",
      "inputs": [
        {
          "name": "amount",
          "type": "uint256",
          "internalType": "uint256"
        }
      ],
      "outputs": [],
      "stateMutability": "nonpayable"
    },
    {
      "type": "function",
      "name": "clt",
      "inputs": [],
      "outputs": [
        {
          "name": "",
          "type": "address",
          "internalType": "contract IERC20"
        }
      ],
      "stateMutability": "view"
    },
    {
      "type": "function",
      "name": "collateralOf",
      "inputs": [
        {
          "name": "user",
          "type": "address",
          "internalType": "address"
        }
      ],
      "outputs": [
        {
          "name": "amount",
          "type": "uint256",
          "internalType": "uint256"
        }
      ],
      "stateMutability": "view"
    },
    {
      "type": "function",
      "name": "getLTC",
      "inputs": [],
      "outputs": [
        {
          "name": "ratio",
          "type": "uint256",
          "internalType": "uint256"
        }
      ],
      "stateMutability": "view"
    },
    {
      "type": "function",
      "name": "isHealthy",
      "inputs": [],
      "outputs": [
        {
          "name": "",
          "type": "bool",
          "internalType": "bool"
        }
      ],
      "stateMutability": "view"
    },
    {
      "type": "function",
      "name": "loanOf",
      "inputs": [
        {
          "name": "user",
          "type": "address",
          "internalType": "address"
        }
      ],
      "outputs": [
        {
          "name": "amount",
          "type": "uint256",
          "internalType": "uint256"
        }
      ],
      "stateMutability": "view"
    },
    {
      "type": "function",
      "name": "repay",
      "inputs": [
        {
          "name": "amount",
          "type": "uint256",
          "internalType": "uint256"
        }
      ],
      "outputs": [],
      "stateMutability": "nonpayable"
    },
    {
      "type": "function",
      "name": "totalBorrowed",
      "inputs": [],
      "outputs": [
        {
          "name": "",
          "type": "uint256",
          "internalType": "uint256"
        }
      ],
      "stateMutability": "view"
    },
    {
      "type": "function",
      "name": "totalCollateral",
      "inputs": [],
      "outputs": [
        {
          "name": "",
          "type": "uint256",
          "internalType": "uint256"
        }
      ],
      "stateMutability": "view"
    },
    {
      "type": "function",
      "name": "withdrawCollateral",
      "inputs": [
        {
          "name": "amount",
          "type": "uint256",
          "internalType": "uint256"
        }
      ],
      "outputs": [],
      "stateMutability": "nonpayable"
    }
  ],
  "bytecode": {
    "object": "0x608060405234801561001057600080fd5b506040516109c23803806109c283398101604081905261002f9161007c565b600080546001600160a01b039384166001600160a01b031991821617909155600180549290931691161790556100af565b80516001600160a01b038116811461007757600080fd5b919050565b6000806040838503121561008f57600080fd5b61009883610060565b91506100a660208401610060565b90509250929050565b610904806100be6000396000f3fe608060405234801561001057600080fd5b50600436106100cf5760003560e01c8063abd2a72b1161008c578063dc550b1b11610066578063dc550b1b1461019b578063e4020804146101bb578063fb9f04b9146101d3578063ff25e71c146101db57600080fd5b8063abd2a72b1461014a578063bcc46e8314610175578063c5ebeaec1461018857600080fd5b80631aefb107146100d45780632e0f262514610107578063371fd8e6146101105780634ac8eb5f146101255780634c19386c1461012e5780636112fe2e14610137575b600080fd5b6100f46100e23660046107c6565b60026020526000908152604090205481565b6040519081526020015b60405180910390f35b6100f461271081565b61012361011e3660046107ef565b6101ee565b005b6100f460055481565b6100f460045481565b6101236101453660046107ef565b610378565b60015461015d906001600160a01b031681565b6040516001600160a01b0390911681526020016100fe565b6101236101833660046107ef565b6104d6565b6101236101963660046107ef565b610652565b6100f46101a93660046107c6565b60036020526000908152604090205481565b6101c361074c565b60405190151581526020016100fe565b6100f4610760565b60005461015d906001600160a01b031681565b600054604051636eb1769f60e11b815233600482015230602482015282916001600160a01b03169063dd62ed3e90604401602060405180830381865afa15801561023c573d6000803e3d6000fd5b505050506040513d601f19601f820116820180604052508101906102609190610808565b10156102ac5760405162461bcd60e51b8152602060048201526016602482015275496e73756666696369656e7420416c6c6f77616e636560501b60448201526064015b60405180910390fd5b600080546040516323b872dd60e01b8152336004820152306024820152604481018490526001600160a01b03909116906323b872dd906064016020604051808303816000875af1158015610304573d6000803e3d6000fd5b505050506040513d601f19601f820116820180604052508101906103289190610821565b90508061033757610337610843565b336000908152600360205260408120805484929061035690849061086f565b92505081905550816004600082825461036f919061086f565b90915550505050565b3360009081526003602090815260408083205460029092528220549091906103a190849061086f565b90506103ad828261078c565b1561040d5760405162461bcd60e51b815260206004820152602a60248201527f496e73756666696369656e74204c544320666f7220436f6c6c61746572616c2060448201526915da5d1a191c985dd85b60b21b60648201526084016102a3565b336000908152600260205260408120805485929061042c90849061086f565b925050819055508260056000828254610445919061086f565b909155505060015460405163a9059cbb60e01b8152336004820152602481018590526000916001600160a01b03169063a9059cbb906044015b6020604051808303816000875af115801561049d573d6000803e3d6000fd5b505050506040513d601f19601f820116820180604052508101906104c19190610821565b9050806104d0576104d0610843565b50505050565b600154604051636eb1769f60e11b815233600482015230602482015282916001600160a01b03169063dd62ed3e90604401602060405180830381865afa158015610524573d6000803e3d6000fd5b505050506040513d601f19601f820116820180604052508101906105489190610808565b101561058f5760405162461bcd60e51b8152602060048201526016602482015275496e73756666696369656e7420416c6c6f77616e636560501b60448201526064016102a3565b6001546040516323b872dd60e01b8152336004820152306024820152604481018390526000916001600160a01b0316906323b872dd906064016020604051808303816000875af11580156105e7573d6000803e3d6000fd5b505050506040513d601f19601f8201168201806040525081019061060b9190610821565b90508061061a5761061a610843565b3360009081526002602052604081208054849290610639908490610882565b92505081905550816005600082825461036f9190610882565b3360009081526003602052604081205461066d908390610882565b3360009081526002602052604090205490915061068a828261078c565b156106d75760405162461bcd60e51b815260206004820152601e60248201527f496e73756666696369656e74204c544320666f7220426f72726f77696e67000060448201526064016102a3565b33600090815260036020526040812080548592906106f6908490610882565b92505081905550826004600082825461070f9190610882565b90915550506000805460405163a9059cbb60e01b8152336004820152602481018690526001600160a01b039091169063a9059cbb9060440161047e565b6000611b58610759610760565b1015905090565b33600090815260026020908152604080832054600390925282205461078581836107a6565b9250505090565b6000611b5861079b84846107a6565b101590505b92915050565b6000816107b561271085610895565b6107bf91906108ac565b9392505050565b6000602082840312156107d857600080fd5b81356001600160a01b03811681146107bf57600080fd5b60006020828403121561080157600080fd5b5035919050565b60006020828403121561081a57600080fd5b5051919050565b60006020828403121561083357600080fd5b815180151581146107bf57600080fd5b634e487b7160e01b600052600160045260246000fd5b634e487b7160e01b600052601160045260246000fd5b818103818111156107a0576107a0610859565b808201808211156107a0576107a0610859565b80820281158282048414176107a0576107a0610859565b6000826108c957634e487b7160e01b600052601260045260246000fd5b50049056fea2646970667358221220f3eb9c5f4468688df7905afbfaf937781fb7cd8df4ad5b82e19bbddfc3fb87ab64736f6c63430008180033",
    "linkReferences": {}
  },
  "methodIdentifiers": {
    "DECIMALS()": "2e0f2625",
    "addCollateral(uint256)": "bcc46e83",
    "bFI()": "ff25e71c",
    "borrow(uint256)": "c5ebeaec",
    "clt()": "abd2a72b",
    "collateralOf(address)": "1aefb107",
    "getLTC()": "fb9f04b9",
    "isHealthy()": "e4020804",
    "loanOf(address)": "dc550b1b",
    "repay(uint256)": "371fd8e6",
    "totalBorrowed()": "4c19386c",
    "totalCollateral()": "4ac8eb5f",
    "withdrawCollateral(uint256)": "6112fe2e"
  },
  "id": 5
}